:020000020000FC
:10000000389A00E400937C0007E800937A000FE040
:100010000AB903E004B928980E9485000E941300E1
:1000200030E30E94950023E30E9439000E9485007E
:1000300022E30E9439000E94850028E20E943900D4
:100040000E9485002CE00E94390021E00E943900C6
:100050000E94850026E00E9439000E9485000E94CF
:1000600063000E94850020EC0E9439000E948500F8
:100070000895B22FB07FBBB92998289A0E947C00BE
:1000800028980E947F00B22FB295B07FBBB9289A02
:100090000E947C0028980E947F000895B22FB07FB4
:1000A000BBB9299A289A0E947C0028980E947C005B
:1000B000B22FB295B07FBBB9289A0E947C002898D5
:1000C0000E947F00089521E40E944E002EE40E94C9
:1000D0004E0027E40E944E002CE40E944E0025E4CE
:1000E0000E944E0020E20E944E002AE30E944E0031
:1000F00020E20E944E0008950000000008954AE5A5
:100100000E947C004A95E1F7089558E20E947F0022
:100110005A95E1F708954FEF5FEF64E16A95F1F7C3
:100120005A95D9F74A95C1F7089517EC10937A00BC
:1001300000917A0004FFFCCF17ED10937A00E09154
:100140007800F09179000E94A600EFCF77278827EA
:100150009927F3300AF404C07395E85EF340F9CFB1
:10016000E4361AF08395E456FBCFEA301AF0939503
:10017000EA50FBCF272F230F0E944E00282F230F7A
:100180000E944E00292F230F0E944E002E2F230F76
:100190000E944E000E948B0020EC0E9439000E94B9
:0401A0008500089539
:00000001FF
